{
  "contractName": "Nft",
  "abi": [
    {
      "inputs": [],
      "stateMutability": "nonpayable",
      "type": "constructor"
    },
    {
      "anonymous": false,
      "inputs": [
        {
          "indexed": true,
          "internalType": "address",
          "name": "owner",
          "type": "address"
        },
        {
          "indexed": true,
          "internalType": "address",
          "name": "approved",
          "type": "address"
        },
        {
          "indexed": true,
          "internalType": "uint256",
          "name": "tokenId",
          "type": "uint256"
        }
      ],
      "name": "Approval",
      "type": "event"
    },
    {
      "anonymous": false,
      "inputs": [
        {
          "indexed": true,
          "internalType": "address",
          "name": "owner",
          "type": "address"
        },
        {
          "indexed": true,
          "internalType": "address",
          "name": "operator",
          "type": "address"
        },
        {
          "indexed": false,
          "internalType": "bool",
          "name": "approved",
          "type": "bool"
        }
      ],
      "name": "ApprovalForAll",
      "type": "event"
    },
    {
      "anonymous": false,
      "inputs": [
        {
          "indexed": true,
          "internalType": "address",
          "name": "previousOwner",
          "type": "address"
        },
        {
          "indexed": true,
          "internalType": "address",
          "name": "newOwner",
          "type": "address"
        }
      ],
      "name": "OwnershipTransferred",
      "type": "event"
    },
    {
      "anonymous": false,
      "inputs": [
        {
          "indexed": true,
          "internalType": "address",
          "name": "from",
          "type": "address"
        },
        {
          "indexed": true,
          "internalType": "address",
          "name": "to",
          "type": "address"
        },
        {
          "indexed": true,
          "internalType": "uint256",
          "name": "tokenId",
          "type": "uint256"
        }
      ],
      "name": "Transfer",
      "type": "event"
    },
    {
      "inputs": [
        {
          "internalType": "address",
          "name": "to",
          "type": "address"
        },
        {
          "internalType": "uint256",
          "name": "tokenId",
          "type": "uint256"
        }
      ],
      "name": "approve",
      "outputs": [],
      "stateMutability": "nonpayable",
      "type": "function"
    },
    {
      "inputs": [
        {
          "internalType": "address",
          "name": "owner",
          "type": "address"
        }
      ],
      "name": "balanceOf",
      "outputs": [
        {
          "internalType": "uint256",
          "name": "",
          "type": "uint256"
        }
      ],
      "stateMutability": "view",
      "type": "function"
    },
    {
      "inputs": [
        {
          "internalType": "uint256",
          "name": "tokenId",
          "type": "uint256"
        }
      ],
      "name": "getApproved",
      "outputs": [
        {
          "internalType": "address",
          "name": "",
          "type": "address"
        }
      ],
      "stateMutability": "view",
      "type": "function"
    },
    {
      "inputs": [
        {
          "internalType": "address",
          "name": "owner",
          "type": "address"
        },
        {
          "internalType": "address",
          "name": "operator",
          "type": "address"
        }
      ],
      "name": "isApprovedForAll",
      "outputs": [
        {
          "internalType": "bool",
          "name": "",
          "type": "bool"
        }
      ],
      "stateMutability": "view",
      "type": "function"
    },
    {
      "inputs": [],
      "name": "name",
      "outputs": [
        {
          "internalType": "string",
          "name": "",
          "type": "string"
        }
      ],
      "stateMutability": "view",
      "type": "function"
    },
    {
      "inputs": [],
      "name": "owner",
      "outputs": [
        {
          "internalType": "address",
          "name": "",
          "type": "address"
        }
      ],
      "stateMutability": "view",
      "type": "function"
    },
    {
      "inputs": [
        {
          "internalType": "uint256",
          "name": "tokenId",
          "type": "uint256"
        }
      ],
      "name": "ownerOf",
      "outputs": [
        {
          "internalType": "address",
          "name": "",
          "type": "address"
        }
      ],
      "stateMutability": "view",
      "type": "function"
    },
    {
      "inputs": [],
      "name": "renounceOwnership",
      "outputs": [],
      "stateMutability": "nonpayable",
      "type": "function"
    },
    {
      "inputs": [
        {
          "internalType": "address",
          "name": "from",
          "type": "address"
        },
        {
          "internalType": "address",
          "name": "to",
          "type": "address"
        },
        {
          "internalType": "uint256",
          "name": "tokenId",
          "type": "uint256"
        }
      ],
      "name": "safeTransferFrom",
      "outputs": [],
      "stateMutability": "nonpayable",
      "type": "function"
    },
    {
      "inputs": [
        {
          "internalType": "address",
          "name": "from",
          "type": "address"
        },
        {
          "internalType": "address",
          "name": "to",
          "type": "address"
        },
        {
          "internalType": "uint256",
          "name": "tokenId",
          "type": "uint256"
        },
        {
          "internalType": "bytes",
          "name": "data",
          "type": "bytes"
        }
      ],
      "name": "safeTransferFrom",
      "outputs": [],
      "stateMutability": "nonpayable",
      "type": "function"
    },
    {
      "inputs": [
        {
          "internalType": "address",
          "name": "operator",
          "type": "address"
        },
        {
          "internalType": "bool",
          "name": "approved",
          "type": "bool"
        }
      ],
      "name": "setApprovalForAll",
      "outputs": [],
      "stateMutability": "nonpayable",
      "type": "function"
    },
    {
      "inputs": [
        {
          "internalType": "bytes4",
          "name": "interfaceId",
          "type": "bytes4"
        }
      ],
      "name": "supportsInterface",
      "outputs": [
        {
          "internalType": "bool",
          "name": "",
          "type": "bool"
        }
      ],
      "stateMutability": "view",
      "type": "function"
    },
    {
      "inputs": [],
      "name": "symbol",
      "outputs": [
        {
          "internalType": "string",
          "name": "",
          "type": "string"
        }
      ],
      "stateMutability": "view",
      "type": "function"
    },
    {
      "inputs": [
        {
          "internalType": "uint256",
          "name": "tokenId",
          "type": "uint256"
        }
      ],
      "name": "tokenURI",
      "outputs": [
        {
          "internalType": "string",
          "name": "",
          "type": "string"
        }
      ],
      "stateMutability": "view",
      "type": "function"
    },
    {
      "inputs": [
        {
          "internalType": "address",
          "name": "from",
          "type": "address"
        },
        {
          "internalType": "address",
          "name": "to",
          "type": "address"
        },
        {
          "internalType": "uint256",
          "name": "tokenId",
          "type": "uint256"
        }
      ],
      "name": "transferFrom",
      "outputs": [],
      "stateMutability": "nonpayable",
      "type": "function"
    },
    {
      "inputs": [
        {
          "internalType": "address",
          "name": "newOwner",
          "type": "address"
        }
      ],
      "name": "transferOwnership",
      "outputs": [],
      "stateMutability": "nonpayable",
      "type": "function"
    },
    {
      "inputs": [
        {
          "internalType": "address",
          "name": "owner",
          "type": "address"
        },
        {
          "internalType": "string",
          "name": "metadataURI",
          "type": "string"
        }
      ],
      "name": "mintToken",
      "outputs": [
        {
          "internalType": "uint256",
          "name": "",
          "type": "uint256"
        }
      ],
      "stateMutability": "payable",
      "type": "function"
    }
  ],
  "bytecode": "0x60806040523480156200001157600080fd5b506040518060400160405280600381526020017f4e465400000000000000000000000000000000000000000000000000000000008152506040518060400160405280600381526020017f6e6674000000000000000000000000000000000000000000000000000000000081525081600090816200008f919062000412565b508060019081620000a1919062000412565b505050620000c4620000b8620000ca60201b60201c565b620000d260201b60201c565b620004f9565b600033905090565b6000600760009054906101000a900473ffffffffffffffffffffffffffffffffffffffff16905081600760006101000a81548173ffffffffffffffffffffffffffffffffffffffff021916908373ffffffffffffffffffffffffffffffffffffffff1602179055508173ffffffffffffffffffffffffffffffffffffffff168173ffffffffffffffffffffffffffffffffffffffff167f8be0079c531659141344cd1fd0a4f28419497f9722a3daafe3b4186f6b6457e060405160405180910390a35050565b600081519050919050565b7f4e487b7100000000000000000000000000000000000000000000000000000000600052604160045260246000fd5b7f4e487b7100000000000000000000000000000000000000000000000000000000600052602260045260246000fd5b600060028204905060018216806200021a57607f821691505b60208210810362000230576200022f620001d2565b5b50919050565b60008190508160005260206000209050919050565b60006020601f8301049050919050565b600082821b905092915050565b6000600883026200029a7fffffffffffffffffffffffffffffffffffffffffffffffffffffffffffffffff826200025b565b620002a686836200025b565b95508019841693508086168417925050509392505050565b6000819050919050565b6000819050919050565b6000620002f3620002ed620002e784620002be565b620002c8565b620002be565b9050919050565b6000819050919050565b6200030f83620002d2565b620003276200031e82620002fa565b84845462000268565b825550505050565b600090565b6200033e6200032f565b6200034b81848462000304565b505050565b5b8181101562000373576200036760008262000334565b60018101905062000351565b5050565b601f821115620003c2576200038c8162000236565b62000397846200024b565b81016020851015620003a7578190505b620003bf620003b6856200024b565b83018262000350565b50505b505050565b600082821c905092915050565b6000620003e760001984600802620003c7565b1980831691505092915050565b6000620004028383620003d4565b9150826002028217905092915050565b6200041d8262000198565b67ffffffffffffffff811115620004395762000438620001a3565b5b62000445825462000201565b6200045282828562000377565b600060209050601f8311600181146200048a576000841562000475578287015190505b620004818582620003f4565b865550620004f1565b601f1984166200049a8662000236565b60005b82811015620004c4578489015182556001820191506020850194506020810190506200049d565b86831015620004e45784890151620004e0601f891682620003d4565b8355505b6001600288020188555050505b505050505050565b6130c980620005096000396000f3fe6080604052600436106100fe5760003560e01c806370a0823111610095578063a22cb46511610064578063a22cb4651461033a578063b88d4fde14610363578063c87b56dd1461038c578063e985e9c5146103c9578063f2fde38b14610406576100fe565b806370a0823114610290578063715018a6146102cd5780638da5cb5b146102e457806395d89b411461030f576100fe565b806323b872dd116100d157806323b872dd146101d15780633d02d0c9146101fa57806342842e0e1461022a5780636352211e14610253576100fe565b806301ffc9a71461010357806306fdde0314610140578063081812fc1461016b578063095ea7b3146101a8575b600080fd5b34801561010f57600080fd5b5061012a60048036038101906101259190611e23565b61042f565b6040516101379190611e6b565b60405180910390f35b34801561014c57600080fd5b50610155610511565b6040516101629190611f16565b60405180910390f35b34801561017757600080fd5b50610192600480360381019061018d9190611f6e565b6105a3565b60405161019f9190611fdc565b60405180910390f35b3480156101b457600080fd5b506101cf60048036038101906101ca9190612023565b6105e9565b005b3480156101dd57600080fd5b506101f860048036038101906101f39190612063565b610700565b005b610214600480360381019061020f91906121eb565b610760565b6040516102219190612256565b60405180910390f35b34801561023657600080fd5b50610251600480360381019061024c9190612063565b610798565b005b34801561025f57600080fd5b5061027a60048036038101906102759190611f6e565b6107b8565b6040516102879190611fdc565b60405180910390f35b34801561029c57600080fd5b506102b760048036038101906102b29190612271565b61083e565b6040516102c49190612256565b60405180910390f35b3480156102d957600080fd5b506102e26108f5565b005b3480156102f057600080fd5b506102f9610909565b6040516103069190611fdc565b60405180910390f35b34801561031b57600080fd5b50610324610933565b6040516103319190611f16565b60405180910390f35b34801561034657600080fd5b50610361600480360381019061035c91906122ca565b6109c5565b005b34801561036f57600080fd5b5061038a600480360381019061038591906123ab565b6109db565b005b34801561039857600080fd5b506103b360048036038101906103ae9190611f6e565b610a3d565b6040516103c09190611f16565b60405180910390f35b3480156103d557600080fd5b506103f060048036038101906103eb919061242e565b610b4f565b6040516103fd9190611e6b565b60405180910390f35b34801561041257600080fd5b5061042d60048036038101906104289190612271565b610be3565b005b60007f80ac58cd000000000000000000000000000000000000000000000000000000007bffffffffffffffffffffffffffffffffffffffffffffffffffffffff1916827bffffffffffffffffffffffffffffffffffffffffffffffffffffffff191614806104fa57507f5b5e139f000000000000000000000000000000000000000000000000000000007bffffffffffffffffffffffffffffffffffffffffffffffffffffffff1916827bffffffffffffffffffffffffffffffffffffffffffffffffffffffff1916145b8061050a575061050982610c66565b5b9050919050565b6060600080546105209061249d565b80601f016020809104026020016040519081016040528092919081815260200182805461054c9061249d565b80156105995780601f1061056e57610100808354040283529160200191610599565b820191906000526020600020905b81548152906001019060200180831161057c57829003601f168201915b5050505050905090565b60006105ae82610cd0565b6004600083815260200190815260200160002060009054906101000a900473ffffffffffffffffffffffffffffffffffffffff169050919050565b60006105f4826107b8565b90508073ffffffffffffffffffffffffffffffffffffffff168373ffffffffffffffffffffffffffffffffffffffff1603610664576040517f08c379a000000000000000000000000000000000000000000000000000000000815260040161065b90612540565b60405180910390fd5b8073ffffffffffffffffffffffffffffffffffffffff16610683610d1b565b73ffffffffffffffffffffffffffffffffffffffff1614806106b257506106b1816106ac610d1b565b610b4f565b5b6106f1576040517f08c379a00000000000000000000000000000000000000000000000000000000081526004016106e8906125d2565b60405180910390fd5b6106fb8383610d23565b505050565b61071161070b610d1b565b82610ddc565b610750576040517f08c379a000000000000000000000000000000000000000000000000000000000815260040161074790612664565b60405180910390fd5b61075b838383610e71565b505050565b600061076c600861116a565b60006107786008611180565b9050610784848261118e565b61078e81846111ac565b8091505092915050565b6107b3838383604051806020016040528060008152506109db565b505050565b6000806107c483611219565b9050600073ffffffffffffffffffffffffffffffffffffffff168173ffffffffffffffffffffffffffffffffffffffff1603610835576040517f08c379a000000000000000000000000000000000000000000000000000000000815260040161082c906126d0565b60405180910390fd5b80915050919050565b60008073ffffffffffffffffffffffffffffffffffffffff168273ffffffffffffffffffffffffffffffffffffffff16036108ae576040517f08c379a00000000000000000000000000000000000000000000000000000000081526004016108a590612762565b60405180910390fd5b600360008373ffffffffffffffffffffffffffffffffffffffff1673ffffffffffffffffffffffffffffffffffffffff168152602001908152602001600020549050919050565b6108fd611256565b61090760006112d4565b565b6000600760009054906101000a900473ffffffffffffffffffffffffffffffffffffffff16905090565b6060600180546109429061249d565b80601f016020809104026020016040519081016040528092919081815260200182805461096e9061249d565b80156109bb5780601f10610990576101008083540402835291602001916109bb565b820191906000526020600020905b81548152906001019060200180831161099e57829003601f168201915b5050505050905090565b6109d76109d0610d1b565b838361139a565b5050565b6109ec6109e6610d1b565b83610ddc565b610a2b576040517f08c379a0000000000000000000000000000000000000000000000000000000008152600401610a2290612664565b60405180910390fd5b610a3784848484611506565b50505050565b6060610a4882610cd0565b6000600660008481526020019081526020016000208054610a689061249d565b80601f0160208091040260200160405190810160405280929190818152602001828054610a949061249d565b8015610ae15780601f10610ab657610100808354040283529160200191610ae1565b820191906000526020600020905b815481529060010190602001808311610ac457829003601f168201915b505050505090506000610af2611562565b90506000815103610b07578192505050610b4a565b600082511115610b3c578082604051602001610b249291906127be565b60405160208183030381529060405292505050610b4a565b610b458461159f565b925050505b919050565b6000600560008473ffffffffffffffffffffffffffffffffffffffff1673ffffffffffffffffffffffffffffffffffffffff16815260200190815260200160002060008373ffffffffffffffffffffffffffffffffffffffff1673ffffffffffffffffffffffffffffffffffffffff16815260200190815260200160002060009054906101000a900460ff16905092915050565b610beb611256565b600073ffffffffffffffffffffffffffffffffffffffff168173ffffffffffffffffffffffffffffffffffffffff1603610c5a576040517f08c379a0000000000000000000000000000000000000000000000000000000008152600401610c5190612854565b60405180910390fd5b610c63816112d4565b50565b60007f01ffc9a7000000000000000000000000000000000000000000000000000000007bffffffffffffffffffffffffffffffffffffffffffffffffffffffff1916827bffffffffffffffffffffffffffffffffffffffffffffffffffffffff1916149050919050565b610cd981611607565b610d18576040517f08c379a0000000000000000000000000000000000000000000000000000000008152600401610d0f906126d0565b60405180910390fd5b50565b600033905090565b816004600083815260200190815260200160002060006101000a81548173ffffffffffffffffffffffffffffffffffffffff021916908373ffffffffffffffffffffffffffffffffffffffff160217905550808273ffffffffffffffffffffffffffffffffffffffff16610d96836107b8565b73ffffffffffffffffffffffffffffffffffffffff167f8c5be1e5ebec7d5bd14f71427d1e84f3dd0314c0f7b2291e5b200ac8c7c3b92560405160405180910390a45050565b600080610de8836107b8565b90508073ffffffffffffffffffffffffffffffffffffffff168473ffffffffffffffffffffffffffffffffffffffff161480610e2a5750610e298185610b4f565b5b80610e6857508373ffffffffffffffffffffffffffffffffffffffff16610e50846105a3565b73ffffffffffffffffffffffffffffffffffffffff16145b91505092915050565b8273ffffffffffffffffffffffffffffffffffffffff16610e91826107b8565b73ffffffffffffffffffffffffffffffffffffffff1614610ee7576040517f08c379a0000000000000000000000000000000000000000000000000000000008152600401610ede906128e6565b60405180910390fd5b600073ffffffffffffffffffffffffffffffffffffffff168273ffffffffffffffffffffffffffffffffffffffff1603610f56576040517f08c379a0000000000000000000000000000000000000000000000000000000008152600401610f4d90612978565b60405180910390fd5b610f638383836001611648565b8273ffffffffffffffffffffffffffffffffffffffff16610f83826107b8565b73ffffffffffffffffffffffffffffffffffffffff1614610fd9576040517f08c379a0000000000000000000000000000000000000000000000000000000008152600401610fd0906128e6565b60405180910390fd5b6004600082815260200190815260200160002060006101000a81549073ffffffffffffffffffffffffffffffffffffffff02191690556001600360008573ffffffffffffffffffffffffffffffffffffffff1673ffffffffffffffffffffffffffffffffffffffff168152602001908152602001600020600082825403925050819055506001600360008473ffffffffffffffffffffffffffffffffffffffff1673ffffffffffffffffffffffffffffffffffffffff16815260200190815260200160002060008282540192505081905550816002600083815260200190815260200160002060006101000a81548173ffffffffffffffffffffffffffffffffffffffff021916908373ffffffffffffffffffffffffffffffffffffffff160217905550808273ffffffffffffffffffffffffffffffffffffffff168473ffffffffffffffffffffffffffffffffffffffff167fddf252ad1be2c89b69c2b068fc378daa952ba7f163c4a11628f55a4df523b3ef60405160405180910390a4611165838383600161176e565b505050565b6001816000016000828254019250508190555050565b600081600001549050919050565b6111a8828260405180602001604052806000815250611774565b5050565b6111b582611607565b6111f4576040517f08c379a00000000000000000000000000000000000000000000000000000000081526004016111eb90612a0a565b60405180910390fd5b806006600084815260200190815260200160002090816112149190612bd6565b505050565b60006002600083815260200190815260200160002060009054906101000a900473ffffffffffffffffffffffffffffffffffffffff169050919050565b61125e610d1b565b73ffffffffffffffffffffffffffffffffffffffff1661127c610909565b73ffffffffffffffffffffffffffffffffffffffff16146112d2576040517f08c379a00000000000000000000000000000000000000000000000000000000081526004016112c990612cf4565b60405180910390fd5b565b6000600760009054906101000a900473ffffffffffffffffffffffffffffffffffffffff16905081600760006101000a81548173ffffffffffffffffffffffffffffffffffffffff021916908373ffffffffffffffffffffffffffffffffffffffff1602179055508173ffffffffffffffffffffffffffffffffffffffff168173ffffffffffffffffffffffffffffffffffffffff167f8be0079c531659141344cd1fd0a4f28419497f9722a3daafe3b4186f6b6457e060405160405180910390a35050565b8173ffffffffffffffffffffffffffffffffffffffff168373ffffffffffffffffffffffffffffffffffffffff1603611408576040517f08c379a00000000000000000000000000000000000000000000000000000000081526004016113ff90612d60565b60405180910390fd5b80600560008573ffffffffffffffffffffffffffffffffffffffff1673ffffffffffffffffffffffffffffffffffffffff16815260200190815260200160002060008473ffffffffffffffffffffffffffffffffffffffff1673ffffffffffffffffffffffffffffffffffffffff16815260200190815260200160002060006101000a81548160ff0219169083151502179055508173ffffffffffffffffffffffffffffffffffffffff168373ffffffffffffffffffffffffffffffffffffffff167f17307eab39ab6107e8899845ad3d59bd9653f200f220920489ca2b5937696c31836040516114f99190611e6b565b60405180910390a3505050565b611511848484610e71565b61151d848484846117cf565b61155c576040517f08c379a000000000000000000000000000000000000000000000000000000000815260040161155390612df2565b60405180910390fd5b50505050565b60606040518060400160405280600781526020017f697066733a2f2f00000000000000000000000000000000000000000000000000815250905090565b60606115aa82610cd0565b60006115b4611562565b905060008151116115d457604051806020016040528060008152506115ff565b806115de84611956565b6040516020016115ef9291906127be565b6040516020818303038152906040525b915050919050565b60008073ffffffffffffffffffffffffffffffffffffffff1661162983611219565b73ffffffffffffffffffffffffffffffffffffffff1614159050919050565b600181111561176857600073ffffffffffffffffffffffffffffffffffffffff168473ffffffffffffffffffffffffffffffffffffffff16146116dc5780600360008673ffffffffffffffffffffffffffffffffffffffff1673ffffffffffffffffffffffffffffffffffffffff16815260200190815260200160002060008282546116d49190612e41565b925050819055505b600073ffffffffffffffffffffffffffffffffffffffff168373ffffffffffffffffffffffffffffffffffffffff16146117675780600360008573ffffffffffffffffffffffffffffffffffffffff1673ffffffffffffffffffffffffffffffffffffffff168152602001908152602001600020600082825461175f9190612e75565b925050819055505b5b50505050565b50505050565b61177e8383611a24565b61178b60008484846117cf565b6117ca576040517f08c379a00000000000000000000000000000000000000000000000000000000081526004016117c190612df2565b60405180910390fd5b505050565b60006117f08473ffffffffffffffffffffffffffffffffffffffff16611c41565b15611949578373ffffffffffffffffffffffffffffffffffffffff1663150b7a02611819610d1b565b8786866040518563ffffffff1660e01b815260040161183b9493929190612efe565b6020604051808303816000875af192505050801561187757506040513d601f19601f820116820180604052508101906118749190612f5f565b60015b6118f9573d80600081146118a7576040519150601f19603f3d011682016040523d82523d6000602084013e6118ac565b606091505b5060008151036118f1576040517f08c379a00000000000000000000000000000000000000000000000000000000081526004016118e890612df2565b60405180910390fd5b805181602001fd5b63150b7a0260e01b7bffffffffffffffffffffffffffffffffffffffffffffffffffffffff1916817bffffffffffffffffffffffffffffffffffffffffffffffffffffffff19161491505061194e565b600190505b949350505050565b60606000600161196584611c64565b01905060008167ffffffffffffffff811115611984576119836120c0565b5b6040519080825280601f01601f1916602001820160405280156119b65781602001600182028036833780820191505090505b509050600082602001820190505b600115611a19578080600190039150507f3031323334353637383961626364656600000000000000000000000000000000600a86061a8153600a8581611a0d57611a0c612f8c565b5b049450600085036119c4575b819350505050919050565b600073ffffffffffffffffffffffffffffffffffffffff168273ffffffffffffffffffffffffffffffffffffffff1603611a93576040517f08c379a0000000000000000000000000000000000000000000000000000000008152600401611a8a90613007565b60405180910390fd5b611a9c81611607565b15611adc576040517f08c379a0000000000000000000000000000000000000000000000000000000008152600401611ad390613073565b60405180910390fd5b611aea600083836001611648565b611af381611607565b15611b33576040517f08c379a0000000000000000000000000000000000000000000000000000000008152600401611b2a90613073565b60405180910390fd5b6001600360008473ffffffffffffffffffffffffffffffffffffffff1673ffffffffffffffffffffffffffffffffffffffff16815260200190815260200160002060008282540192505081905550816002600083815260200190815260200160002060006101000a81548173ffffffffffffffffffffffffffffffffffffffff021916908373ffffffffffffffffffffffffffffffffffffffff160217905550808273ffffffffffffffffffffffffffffffffffffffff16600073ffffffffffffffffffffffffffffffffffffffff167fddf252ad1be2c89b69c2b068fc378daa952ba7f163c4a11628f55a4df523b3ef60405160405180910390a4611c3d60008383600161176e565b5050565b6000808273ffffffffffffffffffffffffffffffffffffffff163b119050919050565b600080600090507a184f03e93ff9f4daa797ed6e38ed64bf6a1f0100000000000000008310611cc2577a184f03e93ff9f4daa797ed6e38ed64bf6a1f0100000000000000008381611cb857611cb7612f8c565b5b0492506040810190505b6d04ee2d6d415b85acef81000000008310611cff576d04ee2d6d415b85acef81000000008381611cf557611cf4612f8c565b5b0492506020810190505b662386f26fc100008310611d2e57662386f26fc100008381611d2457611d23612f8c565b5b0492506010810190505b6305f5e1008310611d57576305f5e1008381611d4d57611d4c612f8c565b5b0492506008810190505b6127108310611d7c576127108381611d7257611d71612f8c565b5b0492506004810190505b60648310611d9f5760648381611d9557611d94612f8c565b5b0492506002810190505b600a8310611dae576001810190505b80915050919050565b6000604051905090565b600080fd5b600080fd5b60007fffffffff0000000000000000000000000000000000000000000000000000000082169050919050565b611e0081611dcb565b8114611e0b57600080fd5b50565b600081359050611e1d81611df7565b92915050565b600060208284031215611e3957611e38611dc1565b5b6000611e4784828501611e0e565b91505092915050565b60008115159050919050565b611e6581611e50565b82525050565b6000602082019050611e806000830184611e5c565b92915050565b600081519050919050565b600082825260208201905092915050565b60005b83811015611ec0578082015181840152602081019050611ea5565b60008484015250505050565b6000601f19601f8301169050919050565b6000611ee882611e86565b611ef28185611e91565b9350611f02818560208601611ea2565b611f0b81611ecc565b840191505092915050565b60006020820190508181036000830152611f308184611edd565b905092915050565b6000819050919050565b611f4b81611f38565b8114611f5657600080fd5b50565b600081359050611f6881611f42565b92915050565b600060208284031215611f8457611f83611dc1565b5b6000611f9284828501611f59565b91505092915050565b600073ffffffffffffffffffffffffffffffffffffffff82169050919050565b6000611fc682611f9b565b9050919050565b611fd681611fbb565b82525050565b6000602082019050611ff16000830184611fcd565b92915050565b61200081611fbb565b811461200b57600080fd5b50565b60008135905061201d81611ff7565b92915050565b6000806040838503121561203a57612039611dc1565b5b60006120488582860161200e565b925050602061205985828601611f59565b9150509250929050565b60008060006060848603121561207c5761207b611dc1565b5b600061208a8682870161200e565b935050602061209b8682870161200e565b92505060406120ac86828701611f59565b9150509250925092565b600080fd5b600080fd5b7f4e487b7100000000000000000000000000000000000000000000000000000000600052604160045260246000fd5b6120f882611ecc565b810181811067ffffffffffffffff82111715612117576121166120c0565b5b80604052505050565b600061212a611db7565b905061213682826120ef565b919050565b600067ffffffffffffffff821115612156576121556120c0565b5b61215f82611ecc565b9050602081019050919050565b82818337600083830152505050565b600061218e6121898461213b565b612120565b9050828152602081018484840111156121aa576121a96120bb565b5b6121b584828561216c565b509392505050565b600082601f8301126121d2576121d16120b6565b5b81356121e284826020860161217b565b91505092915050565b6000806040838503121561220257612201611dc1565b5b60006122108582860161200e565b925050602083013567ffffffffffffffff81111561223157612230611dc6565b5b61223d858286016121bd565b9150509250929050565b61225081611f38565b82525050565b600060208201905061226b6000830184612247565b92915050565b60006020828403121561228757612286611dc1565b5b60006122958482850161200e565b91505092915050565b6122a781611e50565b81146122b257600080fd5b50565b6000813590506122c48161229e565b92915050565b600080604083850312156122e1576122e0611dc1565b5b60006122ef8582860161200e565b9250506020612300858286016122b5565b9150509250929050565b600067ffffffffffffffff821115612325576123246120c0565b5b61232e82611ecc565b9050602081019050919050565b600061234e6123498461230a565b612120565b90508281526020810184848401111561236a576123696120bb565b5b61237584828561216c565b509392505050565b600082601f830112612392576123916120b6565b5b81356123a284826020860161233b565b91505092915050565b600080600080608085870312156123c5576123c4611dc1565b5b60006123d38782880161200e565b94505060206123e48782880161200e565b93505060406123f587828801611f59565b925050606085013567ffffffffffffffff81111561241657612415611dc6565b5b6124228782880161237d565b91505092959194509250565b6000806040838503121561244557612444611dc1565b5b60006124538582860161200e565b92505060206124648582860161200e565b9150509250929050565b7f4e487b7100000000000000000000000000000000000000000000000000000000600052602260045260246000fd5b600060028204905060018216806124b557607f821691505b6020821081036124c8576124c761246e565b5b50919050565b7f4552433732313a20617070726f76616c20746f2063757272656e74206f776e6560008201527f7200000000000000000000000000000000000000000000000000000000000000602082015250565b600061252a602183611e91565b9150612535826124ce565b604082019050919050565b600060208201905081810360008301526125598161251d565b9050919050565b7f4552433732313a20617070726f76652063616c6c6572206973206e6f7420746f60008201527f6b656e206f776e6572206f7220617070726f76656420666f7220616c6c000000602082015250565b60006125bc603d83611e91565b91506125c782612560565b604082019050919050565b600060208201905081810360008301526125eb816125af565b9050919050565b7f4552433732313a2063616c6c6572206973206e6f7420746f6b656e206f776e6560008201527f72206f7220617070726f76656400000000000000000000000000000000000000602082015250565b600061264e602d83611e91565b9150612659826125f2565b604082019050919050565b6000602082019050818103600083015261267d81612641565b9050919050565b7f4552433732313a20696e76616c696420746f6b656e2049440000000000000000600082015250565b60006126ba601883611e91565b91506126c582612684565b602082019050919050565b600060208201905081810360008301526126e9816126ad565b9050919050565b7f4552433732313a2061646472657373207a65726f206973206e6f74206120766160008201527f6c6964206f776e65720000000000000000000000000000000000000000000000602082015250565b600061274c602983611e91565b9150612757826126f0565b604082019050919050565b6000602082019050818103600083015261277b8161273f565b9050919050565b600081905092915050565b600061279882611e86565b6127a28185612782565b93506127b2818560208601611ea2565b80840191505092915050565b60006127ca828561278d565b91506127d6828461278d565b91508190509392505050565b7f4f776e61626c653a206e6577206f776e657220697320746865207a65726f206160008201527f6464726573730000000000000000000000000000000000000000000000000000602082015250565b600061283e602683611e91565b9150612849826127e2565b604082019050919050565b6000602082019050818103600083015261286d81612831565b9050919050565b7f4552433732313a207472616e736665722066726f6d20696e636f72726563742060008201527f6f776e6572000000000000000000000000000000000000000000000000000000602082015250565b60006128d0602583611e91565b91506128db82612874565b604082019050919050565b600060208201905081810360008301526128ff816128c3565b9050919050565b7f4552433732313a207472616e7366657220746f20746865207a65726f2061646460008201527f7265737300000000000000000000000000000000000000000000000000000000602082015250565b6000612962602483611e91565b915061296d82612906565b604082019050919050565b6000602082019050818103600083015261299181612955565b9050919050565b7f45524337323155524953746f726167653a2055524920736574206f66206e6f6e60008201527f6578697374656e7420746f6b656e000000000000000000000000000000000000602082015250565b60006129f4602e83611e91565b91506129ff82612998565b604082019050919050565b60006020820190508181036000830152612a23816129e7565b9050919050565b60008190508160005260206000209050919050565b60006020601f8301049050919050565b600082821b905092915050565b600060088302612a8c7fffffffffffffffffffffffffffffffffffffffffffffffffffffffffffffffff82612a4f565b612a968683612a4f565b95508019841693508086168417925050509392505050565b6000819050919050565b6000612ad3612ace612ac984611f38565b612aae565b611f38565b9050919050565b6000819050919050565b612aed83612ab8565b612b01612af982612ada565b848454612a5c565b825550505050565b600090565b612b16612b09565b612b21818484612ae4565b505050565b5b81811015612b4557612b3a600082612b0e565b600181019050612b27565b5050565b601f821115612b8a57612b5b81612a2a565b612b6484612a3f565b81016020851015612b73578190505b612b87612b7f85612a3f565b830182612b26565b50505b505050565b600082821c905092915050565b6000612bad60001984600802612b8f565b1980831691505092915050565b6000612bc68383612b9c565b9150826002028217905092915050565b612bdf82611e86565b67ffffffffffffffff811115612bf857612bf76120c0565b5b612c02825461249d565b612c0d828285612b49565b600060209050601f831160018114612c405760008415612c2e578287015190505b612c388582612bba565b865550612ca0565b601f198416612c4e86612a2a565b60005b82811015612c7657848901518255600182019150602085019450602081019050612c51565b86831015612c935784890151612c8f601f891682612b9c565b8355505b6001600288020188555050505b505050505050565b7f4f776e61626c653a2063616c6c6572206973206e6f7420746865206f776e6572600082015250565b6000612cde602083611e91565b9150612ce982612ca8565b602082019050919050565b60006020820190508181036000830152612d0d81612cd1565b9050919050565b7f4552433732313a20617070726f766520746f2063616c6c657200000000000000600082015250565b6000612d4a601983611e91565b9150612d5582612d14565b602082019050919050565b60006020820190508181036000830152612d7981612d3d565b9050919050565b7f4552433732313a207472616e7366657220746f206e6f6e20455243373231526560008201527f63656976657220696d706c656d656e7465720000000000000000000000000000602082015250565b6000612ddc603283611e91565b9150612de782612d80565b604082019050919050565b60006020820190508181036000830152612e0b81612dcf565b9050919050565b7f4e487b7100000000000000000000000000000000000000000000000000000000600052601160045260246000fd5b6000612e4c82611f38565b9150612e5783611f38565b9250828203905081811115612e6f57612e6e612e12565b5b92915050565b6000612e8082611f38565b9150612e8b83611f38565b9250828201905080821115612ea357612ea2612e12565b5b92915050565b600081519050919050565b600082825260208201905092915050565b6000612ed082612ea9565b612eda8185612eb4565b9350612eea818560208601611ea2565b612ef381611ecc565b840191505092915050565b6000608082019050612f136000830187611fcd565b612f206020830186611fcd565b612f2d6040830185612247565b8181036060830152612f3f8184612ec5565b905095945050505050565b600081519050612f5981611df7565b92915050565b600060208284031215612f7557612f74611dc1565b5b6000612f8384828501612f4a565b91505092915050565b7f4e487b7100000000000000000000000000000000000000000000000000000000600052601260045260246000fd5b7f4552433732313a206d696e7420746f20746865207a65726f2061646472657373600082015250565b6000612ff1602083611e91565b9150612ffc82612fbb565b602082019050919050565b6000602082019050818103600083015261302081612fe4565b9050919050565b7f4552433732313a20746f6b656e20616c7265616479206d696e74656400000000600082015250565b600061305d601c83611e91565b915061306882613027565b602082019050919050565b6000602082019050818103600083015261308c81613050565b905091905056fea26469706673582212204a8db2b2c78b7b136e005c4e0af320f99df0ebf5c14d99af3d8ce1021ecf0b2964736f6c63430008110033",
  "immutableReferences": {},
  "source": "// SPDX-License-Identifier: MIT\r\npragma solidity ^0.8.0;\r\n\r\nimport \"@openzeppelin/contracts/token/ERC721/extensions/ERC721URIStorage.sol\";\r\nimport \"@openzeppelin/contracts/token/ERC721/extensions/IERC721Metadata.sol\";\r\nimport \"@openzeppelin/contracts/token/ERC721/extensions/ERC721Enumerable.sol\";\r\nimport \"@openzeppelin/contracts/utils/Counters.sol\";\r\nimport \"@openzeppelin/contracts/access/Ownable.sol\";\r\nimport '@openzeppelin/contracts/utils/introspection/ERC165.sol';\r\nimport \"@openzeppelin/contracts/token/ERC1155/ERC1155.sol\";\r\n\r\ncontract Nft is ERC721URIStorage, Ownable {\r\n\r\n    using Address for address;\r\n    using Counters for Counters.Counter;\r\n    Counters.Counter private _tokenIds;\r\n\r\n    // Mapping from token ID to account balances\r\n    mapping(uint256 => mapping(address => uint256)) private _balances;\r\n\r\n     constructor() ERC721(\"NFT\", \"nft\") {}\r\n\r\n     function _baseURI() internal view virtual override returns (string memory) {\r\n        return \"ipfs://\";\r\n    }\r\n\r\n    function mintToken(address owner, string memory metadataURI)\r\n    public payable\r\n    returns (uint256)\r\n    {\r\n        _tokenIds.increment();\r\n\r\n        uint256 id = _tokenIds.current();\r\n         _safeMint(owner, id);     \r\n        _setTokenURI(id, metadataURI);\r\n\r\n        return id;\r\n    }\r\n\r\n}",
  "sourcePath": "C:\\Users\\cq771\\BlockchainProjects\\Project2\\src\\contracts\\Nft.sol",
  "compiler": {
    "name": "solc",
    "version": "0.8.17+commit.8df45f5f.Emscripten.clang"
  },
  "schemaVersion": "3.4.10",
  "updatedAt": "2023-01-06T03:38:11.570Z",
  "devdoc": {
    "kind": "dev",
    "methods": {
      "approve(address,uint256)": {
        "details": "See {IERC721-approve}."
      },
      "balanceOf(address)": {
        "details": "See {IERC721-balanceOf}."
      },
      "getApproved(uint256)": {
        "details": "See {IERC721-getApproved}."
      },
      "isApprovedForAll(address,address)": {
        "details": "See {IERC721-isApprovedForAll}."
      },
      "name()": {
        "details": "See {IERC721Metadata-name}."
      },
      "owner()": {
        "details": "Returns the address of the current owner."
      },
      "ownerOf(uint256)": {
        "details": "See {IERC721-ownerOf}."
      },
      "renounceOwnership()": {
        "details": "Leaves the contract without owner. It will not be possible to call `onlyOwner` functions anymore. Can only be called by the current owner. NOTE: Renouncing ownership will leave the contract without an owner, thereby removing any functionality that is only available to the owner."
      },
      "safeTransferFrom(address,address,uint256)": {
        "details": "See {IERC721-safeTransferFrom}."
      },
      "safeTransferFrom(address,address,uint256,bytes)": {
        "details": "See {IERC721-safeTransferFrom}."
      },
      "setApprovalForAll(address,bool)": {
        "details": "See {IERC721-setApprovalForAll}."
      },
      "supportsInterface(bytes4)": {
        "details": "See {IERC165-supportsInterface}."
      },
      "symbol()": {
        "details": "See {IERC721Metadata-symbol}."
      },
      "tokenURI(uint256)": {
        "details": "See {IERC721Metadata-tokenURI}."
      },
      "transferFrom(address,address,uint256)": {
        "details": "See {IERC721-transferFrom}."
      },
      "transferOwnership(address)": {
        "details": "Transfers ownership of the contract to a new account (`newOwner`). Can only be called by the current owner."
      }
    },
    "version": 1
  },
  "userdoc": {
    "kind": "user",
    "methods": {},
    "version": 1
  }
}