{
  "contractName": "NFTMarketplace",
  "abi": [
    {
      "inputs": [],
      "stateMutability": "nonpayable",
      "type": "constructor"
    },
    {
      "anonymous": false,
      "inputs": [
        {
          "indexed": true,
          "internalType": "address",
          "name": "owner",
          "type": "address"
        },
        {
          "indexed": true,
          "internalType": "address",
          "name": "approved",
          "type": "address"
        },
        {
          "indexed": true,
          "internalType": "uint256",
          "name": "tokenId",
          "type": "uint256"
        }
      ],
      "name": "Approval",
      "type": "event"
    },
    {
      "anonymous": false,
      "inputs": [
        {
          "indexed": true,
          "internalType": "address",
          "name": "owner",
          "type": "address"
        },
        {
          "indexed": true,
          "internalType": "address",
          "name": "operator",
          "type": "address"
        },
        {
          "indexed": false,
          "internalType": "bool",
          "name": "approved",
          "type": "bool"
        }
      ],
      "name": "ApprovalForAll",
      "type": "event"
    },
    {
      "anonymous": false,
      "inputs": [
        {
          "indexed": true,
          "internalType": "uint256",
          "name": "itemId",
          "type": "uint256"
        },
        {
          "indexed": true,
          "internalType": "uint256",
          "name": "tokenId",
          "type": "uint256"
        },
        {
          "indexed": true,
          "internalType": "address",
          "name": "nftContract",
          "type": "address"
        },
        {
          "indexed": false,
          "internalType": "address",
          "name": "seller",
          "type": "address"
        },
        {
          "indexed": false,
          "internalType": "address",
          "name": "owner",
          "type": "address"
        },
        {
          "indexed": false,
          "internalType": "uint256",
          "name": "price",
          "type": "uint256"
        },
        {
          "indexed": false,
          "internalType": "bool",
          "name": "sold",
          "type": "bool"
        }
      ],
      "name": "MarketItemCreated",
      "type": "event"
    },
    {
      "anonymous": false,
      "inputs": [
        {
          "indexed": true,
          "internalType": "uint256",
          "name": "itemId",
          "type": "uint256"
        },
        {
          "indexed": false,
          "internalType": "address",
          "name": "owner",
          "type": "address"
        }
      ],
      "name": "MarketItemSold",
      "type": "event"
    },
    {
      "anonymous": false,
      "inputs": [
        {
          "indexed": true,
          "internalType": "address",
          "name": "from",
          "type": "address"
        },
        {
          "indexed": true,
          "internalType": "address",
          "name": "to",
          "type": "address"
        },
        {
          "indexed": true,
          "internalType": "uint256",
          "name": "tokenId",
          "type": "uint256"
        }
      ],
      "name": "Transfer",
      "type": "event"
    },
    {
      "inputs": [
        {
          "internalType": "address",
          "name": "to",
          "type": "address"
        },
        {
          "internalType": "uint256",
          "name": "tokenId",
          "type": "uint256"
        }
      ],
      "name": "approve",
      "outputs": [],
      "stateMutability": "nonpayable",
      "type": "function"
    },
    {
      "inputs": [
        {
          "internalType": "address",
          "name": "owner",
          "type": "address"
        }
      ],
      "name": "balanceOf",
      "outputs": [
        {
          "internalType": "uint256",
          "name": "",
          "type": "uint256"
        }
      ],
      "stateMutability": "view",
      "type": "function",
      "constant": true
    },
    {
      "inputs": [
        {
          "internalType": "uint256",
          "name": "tokenId",
          "type": "uint256"
        }
      ],
      "name": "getApproved",
      "outputs": [
        {
          "internalType": "address",
          "name": "",
          "type": "address"
        }
      ],
      "stateMutability": "view",
      "type": "function",
      "constant": true
    },
    {
      "inputs": [
        {
          "internalType": "address",
          "name": "owner",
          "type": "address"
        },
        {
          "internalType": "address",
          "name": "operator",
          "type": "address"
        }
      ],
      "name": "isApprovedForAll",
      "outputs": [
        {
          "internalType": "bool",
          "name": "",
          "type": "bool"
        }
      ],
      "stateMutability": "view",
      "type": "function",
      "constant": true
    },
    {
      "inputs": [],
      "name": "name",
      "outputs": [
        {
          "internalType": "string",
          "name": "",
          "type": "string"
        }
      ],
      "stateMutability": "view",
      "type": "function",
      "constant": true
    },
    {
      "inputs": [],
      "name": "owner",
      "outputs": [
        {
          "internalType": "address",
          "name": "",
          "type": "address"
        }
      ],
      "stateMutability": "view",
      "type": "function",
      "constant": true
    },
    {
      "inputs": [
        {
          "internalType": "uint256",
          "name": "tokenId",
          "type": "uint256"
        }
      ],
      "name": "ownerOf",
      "outputs": [
        {
          "internalType": "address",
          "name": "",
          "type": "address"
        }
      ],
      "stateMutability": "view",
      "type": "function",
      "constant": true
    },
    {
      "inputs": [
        {
          "internalType": "address",
          "name": "from",
          "type": "address"
        },
        {
          "internalType": "address",
          "name": "to",
          "type": "address"
        },
        {
          "internalType": "uint256",
          "name": "tokenId",
          "type": "uint256"
        }
      ],
      "name": "safeTransferFrom",
      "outputs": [],
      "stateMutability": "nonpayable",
      "type": "function"
    },
    {
      "inputs": [
        {
          "internalType": "address",
          "name": "from",
          "type": "address"
        },
        {
          "internalType": "address",
          "name": "to",
          "type": "address"
        },
        {
          "internalType": "uint256",
          "name": "tokenId",
          "type": "uint256"
        },
        {
          "internalType": "bytes",
          "name": "data",
          "type": "bytes"
        }
      ],
      "name": "safeTransferFrom",
      "outputs": [],
      "stateMutability": "nonpayable",
      "type": "function"
    },
    {
      "inputs": [
        {
          "internalType": "address",
          "name": "operator",
          "type": "address"
        },
        {
          "internalType": "bool",
          "name": "approved",
          "type": "bool"
        }
      ],
      "name": "setApprovalForAll",
      "outputs": [],
      "stateMutability": "nonpayable",
      "type": "function"
    },
    {
      "inputs": [
        {
          "internalType": "bytes4",
          "name": "interfaceId",
          "type": "bytes4"
        }
      ],
      "name": "supportsInterface",
      "outputs": [
        {
          "internalType": "bool",
          "name": "",
          "type": "bool"
        }
      ],
      "stateMutability": "view",
      "type": "function",
      "constant": true
    },
    {
      "inputs": [],
      "name": "symbol",
      "outputs": [
        {
          "internalType": "string",
          "name": "",
          "type": "string"
        }
      ],
      "stateMutability": "view",
      "type": "function",
      "constant": true
    },
    {
      "inputs": [
        {
          "internalType": "uint256",
          "name": "tokenId",
          "type": "uint256"
        }
      ],
      "name": "tokenURI",
      "outputs": [
        {
          "internalType": "string",
          "name": "",
          "type": "string"
        }
      ],
      "stateMutability": "view",
      "type": "function",
      "constant": true
    },
    {
      "inputs": [
        {
          "internalType": "address",
          "name": "from",
          "type": "address"
        },
        {
          "internalType": "address",
          "name": "to",
          "type": "address"
        },
        {
          "internalType": "uint256",
          "name": "tokenId",
          "type": "uint256"
        }
      ],
      "name": "transferFrom",
      "outputs": [],
      "stateMutability": "nonpayable",
      "type": "function"
    },
    {
      "inputs": [
        {
          "internalType": "address",
          "name": "nftContract",
          "type": "address"
        },
        {
          "internalType": "uint256",
          "name": "tokenId",
          "type": "uint256"
        },
        {
          "internalType": "uint256",
          "name": "price",
          "type": "uint256"
        }
      ],
      "name": "createMarketItem",
      "outputs": [],
      "stateMutability": "payable",
      "type": "function",
      "payable": true
    },
    {
      "inputs": [
        {
          "internalType": "address",
          "name": "nftContract",
          "type": "address"
        },
        {
          "internalType": "uint256",
          "name": "itemId",
          "type": "uint256"
        }
      ],
      "name": "createMarketSale",
      "outputs": [],
      "stateMutability": "payable",
      "type": "function",
      "payable": true
    },
    {
      "inputs": [],
      "name": "fetchMarketItems",
      "outputs": [
        {
          "components": [
            {
              "internalType": "uint256",
              "name": "itemId",
              "type": "uint256"
            },
            {
              "internalType": "uint256",
              "name": "tokenId",
              "type": "uint256"
            },
            {
              "internalType": "address",
              "name": "nftContract",
              "type": "address"
            },
            {
              "internalType": "address payable",
              "name": "seller",
              "type": "address"
            },
            {
              "internalType": "address payable",
              "name": "owner",
              "type": "address"
            },
            {
              "internalType": "uint256",
              "name": "price",
              "type": "uint256"
            },
            {
              "internalType": "bool",
              "name": "sold",
              "type": "bool"
            }
          ],
          "internalType": "struct NFTMarketplace.MarketItem[]",
          "name": "",
          "type": "tuple[]"
        }
      ],
      "stateMutability": "view",
      "type": "function",
      "constant": true
    }
  ],
  "bytecode": "0x60806040523480156200001157600080fd5b506040518060400160405280600f81526020017f546573744441707020546f6b656e7300000000000000000000000000000000008152506040518060400160405280600381526020017f5444540000000000000000000000000000000000000000000000000000000000815250600160008190555081600190816200009791906200036d565b508060029081620000a991906200036d565b50505033600a60006101000a81548173ffffffffffffffffffffffffffffffffffffffff021916908373ffffffffffffffffffffffffffffffffffffffff16021790555062000454565b600081519050919050565b7f4e487b7100000000000000000000000000000000000000000000000000000000600052604160045260246000fd5b7f4e487b7100000000000000000000000000000000000000000000000000000000600052602260045260246000fd5b600060028204905060018216806200017557607f821691505b6020821081036200018b576200018a6200012d565b5b50919050565b60008190508160005260206000209050919050565b60006020601f8301049050919050565b600082821b905092915050565b600060088302620001f57fffffffffffffffffffffffffffffffffffffffffffffffffffffffffffffffff82620001b6565b620002018683620001b6565b95508019841693508086168417925050509392505050565b6000819050919050565b6000819050919050565b60006200024e62000248620002428462000219565b62000223565b62000219565b9050919050565b6000819050919050565b6200026a836200022d565b62000282620002798262000255565b848454620001c3565b825550505050565b600090565b620002996200028a565b620002a68184846200025f565b505050565b5b81811015620002ce57620002c26000826200028f565b600181019050620002ac565b5050565b601f8211156200031d57620002e78162000191565b620002f284620001a6565b8101602085101562000302578190505b6200031a6200031185620001a6565b830182620002ab565b50505b505050565b600082821c905092915050565b6000620003426000198460080262000322565b1980831691505092915050565b60006200035d83836200032f565b9150826002028217905092915050565b6200037882620000f3565b67ffffffffffffffff811115620003945762000393620000fe565b5b620003a082546200015c565b620003ad828285620002d2565b600060209050601f831160018114620003e55760008415620003d0578287015190505b620003dc85826200034f565b8655506200044c565b601f198416620003f58662000191565b60005b828110156200041f57848901518255600182019150602085019450602081019050620003f8565b868310156200043f57848901516200043b601f8916826200032f565b8355505b6001600288020188555050505b505050505050565b6133b080620004646000396000f3fe6080604052600436106100fe5760003560e01c80636352211e11610095578063a22cb46511610064578063a22cb4651461033a578063b88d4fde14610363578063c23b139e1461038c578063c87b56dd146103a8578063e985e9c5146103e5576100fe565b80636352211e1461026a57806370a08231146102a75780638da5cb5b146102e457806395d89b411461030f576100fe565b80630f08efe0116100d15780630f08efe0146101d157806323b872dd146101fc57806342842e0e1461022557806358eb2df51461024e576100fe565b806301ffc9a71461010357806306fdde0314610140578063081812fc1461016b578063095ea7b3146101a8575b600080fd5b34801561010f57600080fd5b5061012a600480360381019061012591906121c5565b610422565b604051610137919061220d565b60405180910390f35b34801561014c57600080fd5b50610155610504565b60405161016291906122b8565b60405180910390f35b34801561017757600080fd5b50610192600480360381019061018d9190612310565b610596565b60405161019f919061237e565b60405180910390f35b3480156101b457600080fd5b506101cf60048036038101906101ca91906123c5565b6105dc565b005b3480156101dd57600080fd5b506101e66106f3565b6040516101f39190612590565b60405180910390f35b34801561020857600080fd5b50610223600480360381019061021e91906125b2565b6109bc565b005b34801561023157600080fd5b5061024c600480360381019061024791906125b2565b610a1c565b005b61026860048036038101906102639190612605565b610a3c565b005b34801561027657600080fd5b50610291600480360381019061028c9190612310565b610cb2565b60405161029e919061237e565b60405180910390f35b3480156102b357600080fd5b506102ce60048036038101906102c99190612658565b610d38565b6040516102db9190612694565b60405180910390f35b3480156102f057600080fd5b506102f9610def565b604051610306919061237e565b60405180910390f35b34801561031b57600080fd5b50610324610e15565b60405161033191906122b8565b60405180910390f35b34801561034657600080fd5b50610361600480360381019061035c91906126db565b610ea7565b005b34801561036f57600080fd5b5061038a60048036038101906103859190612850565b610ebd565b005b6103a660048036038101906103a191906123c5565b610f1f565b005b3480156103b457600080fd5b506103cf60048036038101906103ca9190612310565b6111f5565b6040516103dc91906122b8565b60405180910390f35b3480156103f157600080fd5b5061040c600480360381019061040791906128d3565b611307565b604051610419919061220d565b60405180910390f35b60007f80ac58cd000000000000000000000000000000000000000000000000000000007bffffffffffffffffffffffffffffffffffffffffffffffffffffffff1916827bffffffffffffffffffffffffffffffffffffffffffffffffffffffff191614806104ed57507f5b5e139f000000000000000000000000000000000000000000000000000000007bffffffffffffffffffffffffffffffffffffffffffffffffffffffff1916827bffffffffffffffffffffffffffffffffffffffffffffffffffffffff1916145b806104fd57506104fc8261139b565b5b9050919050565b60606001805461051390612942565b80601f016020809104026020016040519081016040528092919081815260200182805461053f90612942565b801561058c5780601f106105615761010080835404028352916020019161058c565b820191906000526020600020905b81548152906001019060200180831161056f57829003601f168201915b5050505050905090565b60006105a182611405565b6005600083815260200190815260200160002060009054906101000a900473ffffffffffffffffffffffffffffffffffffffff169050919050565b60006105e782610cb2565b90508073ffffffffffffffffffffffffffffffffffffffff168373ffffffffffffffffffffffffffffffffffffffff1603610657576040517f08c379a000000000000000000000000000000000000000000000000000000000815260040161064e906129e5565b60405180910390fd5b8073ffffffffffffffffffffffffffffffffffffffff16610676611450565b73ffffffffffffffffffffffffffffffffffffffff1614806106a557506106a48161069f611450565b611307565b5b6106e4576040517f08c379a00000000000000000000000000000000000000000000000000000000081526004016106db90612a77565b60405180910390fd5b6106ee8383611458565b505050565b606060006107016008611511565b9050600061070f6009611511565b6107196008611511565b6107239190612ac6565b90506000808267ffffffffffffffff81111561074257610741612725565b5b60405190808252806020026020018201604052801561077b57816020015b6107686120d8565b8152602001906001900390816107605790505b50905060005b848110156109b157600073ffffffffffffffffffffffffffffffffffffffff16600b60006001846107b29190612afa565b815260200190815260200160002060040160009054906101000a900473ffffffffffffffffffffffffffffffffffffffff1673ffffffffffffffffffffffffffffffffffffffff160361099e57600060018261080e9190612afa565b90506000600b60008381526020019081526020016000209050806040518060e001604052908160008201548152602001600182015481526020016002820160009054906101000a900473ffffffffffffffffffffffffffffffffffffffff1673ffffffffffffffffffffffffffffffffffffffff1673ffffffffffffffffffffffffffffffffffffffff1681526020016003820160009054906101000a900473ffffffffffffffffffffffffffffffffffffffff1673ffffffffffffffffffffffffffffffffffffffff1673ffffffffffffffffffffffffffffffffffffffff1681526020016004820160009054906101000a900473ffffffffffffffffffffffffffffffffffffffff1673ffffffffffffffffffffffffffffffffffffffff1673ffffffffffffffffffffffffffffffffffffffff168152602001600582015481526020016006820160009054906101000a900460ff16151515158152505084868151811061098157610980612b2e565b5b60200260200101819052506001856109999190612afa565b945050505b80806109a990612b5d565b915050610781565b508094505050505090565b6109cd6109c7611450565b8261151f565b610a0c576040517f08c379a0000000000000000000000000000000000000000000000000000000008152600401610a0390612c17565b60405180910390fd5b610a178383836115b4565b505050565b610a3783838360405180602001604052806000815250610ebd565b505050565b610a446118ad565b60008111610a87576040517f08c379a0000000000000000000000000000000000000000000000000000000008152600401610a7e90612c83565b60405180910390fd5b610a9160086118fc565b6000610a9d6008611511565b90506040518060e001604052808281526020018481526020018573ffffffffffffffffffffffffffffffffffffffff1681526020013373ffffffffffffffffffffffffffffffffffffffff168152602001600073ffffffffffffffffffffffffffffffffffffffff16815260200183815260200160001515815250600b6000838152602001908152602001600020600082015181600001556020820151816001015560408201518160020160006101000a81548173ffffffffffffffffffffffffffffffffffffffff021916908373ffffffffffffffffffffffffffffffffffffffff16021790555060608201518160030160006101000a81548173ffffffffffffffffffffffffffffffffffffffff021916908373ffffffffffffffffffffffffffffffffffffffff16021790555060808201518160040160006101000a81548173ffffffffffffffffffffffffffffffffffffffff021916908373ffffffffffffffffffffffffffffffffffffffff16021790555060a0820151816005015560c08201518160060160006101000a81548160ff021916908315150217905550905050610c4c306001610ea7565b8373ffffffffffffffffffffffffffffffffffffffff1683827f559a3a6d05e6c668564a802e14c9315ffcce4efdb13bf30a43c6790b957c36be336000876000604051610c9c9493929190612ca3565b60405180910390a450610cad611912565b505050565b600080610cbe8361191c565b9050600073ffffffffffffffffffffffffffffffffffffffff168173ffffffffffffffffffffffffffffffffffffffff1603610d2f576040517f08c379a0000000000000000000000000000000000000000000000000000000008152600401610d2690612d34565b60405180910390fd5b80915050919050565b60008073ffffffffffffffffffffffffffffffffffffffff168273ffffffffffffffffffffffffffffffffffffffff1603610da8576040517f08c379a0000000000000000000000000000000000000000000000000000000008152600401610d9f90612dc6565b60405180910390fd5b600460008373ffffffffffffffffffffffffffffffffffffffff1673ffffffffffffffffffffffffffffffffffffffff168152602001908152602001600020549050919050565b600a60009054906101000a900473ffffffffffffffffffffffffffffffffffffffff1681565b606060028054610e2490612942565b80601f0160208091040260200160405190810160405280929190818152602001828054610e5090612942565b8015610e9d5780601f10610e7257610100808354040283529160200191610e9d565b820191906000526020600020905b815481529060010190602001808311610e8057829003601f168201915b5050505050905090565b610eb9610eb2611450565b8383611959565b5050565b610ece610ec8611450565b8361151f565b610f0d576040517f08c379a0000000000000000000000000000000000000000000000000000000008152600401610f0490612c17565b60405180910390fd5b610f1984848484611ac5565b50505050565b6000600b60008381526020019081526020016000206005015490506000600b60008481526020019081526020016000206001015490506000600b600085815260200190815260200160002060060160009054906101000a900460ff169050823414610fbf576040517f08c379a0000000000000000000000000000000000000000000000000000000008152600401610fb690612e58565b60405180910390fd5b6001151581151503611006576040517f08c379a0000000000000000000000000000000000000000000000000000000008152600401610ffd90612ec4565b60405180910390fd5b837f2073b2706c235effb1e3840575370a51749afd8181b4018f93bff955d50792cb33604051611036919061237e565b60405180910390a2600b600085815260200190815260200160002060030160009054906101000a900473ffffffffffffffffffffffffffffffffffffffff1673ffffffffffffffffffffffffffffffffffffffff166108fc349081150290604051600060405180830381858888f193505050501580156110ba573d6000803e3d6000fd5b508473ffffffffffffffffffffffffffffffffffffffff166323b872dd600b600087815260200190815260200160002060030160009054906101000a900473ffffffffffffffffffffffffffffffffffffffff1633856040518463ffffffff1660e01b815260040161112e93929190612f43565b600060405180830381600087803b15801561114857600080fd5b505af115801561115c573d6000803e3d6000fd5b5050505033600b600086815260200190815260200160002060040160006101000a81548173ffffffffffffffffffffffffffffffffffffffff021916908373ffffffffffffffffffffffffffffffffffffffff1602179055506111bf60096118fc565b6001600b600086815260200190815260200160002060060160006101000a81548160ff0219169083151502179055505050505050565b606061120082611405565b600060076000848152602001908152602001600020805461122090612942565b80601f016020809104026020016040519081016040528092919081815260200182805461124c90612942565b80156112995780601f1061126e57610100808354040283529160200191611299565b820191906000526020600020905b81548152906001019060200180831161127c57829003601f168201915b5050505050905060006112aa611b21565b905060008151036112bf578192505050611302565b6000825111156112f45780826040516020016112dc929190612fb6565b60405160208183030381529060405292505050611302565b6112fd84611b38565b925050505b919050565b6000600660008473ffffffffffffffffffffffffffffffffffffffff1673ffffffffffffffffffffffffffffffffffffffff16815260200190815260200160002060008373ffffffffffffffffffffffffffffffffffffffff1673ffffffffffffffffffffffffffffffffffffffff16815260200190815260200160002060009054906101000a900460ff16905092915050565b60007f01ffc9a7000000000000000000000000000000000000000000000000000000007bffffffffffffffffffffffffffffffffffffffffffffffffffffffff1916827bffffffffffffffffffffffffffffffffffffffffffffffffffffffff1916149050919050565b61140e81611ba0565b61144d576040517f08c379a000000000000000000000000000000000000000000000000000000000815260040161144490612d34565b60405180910390fd5b50565b600033905090565b816005600083815260200190815260200160002060006101000a81548173ffffffffffffffffffffffffffffffffffffffff021916908373ffffffffffffffffffffffffffffffffffffffff160217905550808273ffffffffffffffffffffffffffffffffffffffff166114cb83610cb2565b73ffffffffffffffffffffffffffffffffffffffff167f8c5be1e5ebec7d5bd14f71427d1e84f3dd0314c0f7b2291e5b200ac8c7c3b92560405160405180910390a45050565b600081600001549050919050565b60008061152b83610cb2565b90508073ffffffffffffffffffffffffffffffffffffffff168473ffffffffffffffffffffffffffffffffffffffff16148061156d575061156c8185611307565b5b806115ab57508373ffffffffffffffffffffffffffffffffffffffff1661159384610596565b73ffffffffffffffffffffffffffffffffffffffff16145b91505092915050565b8273ffffffffffffffffffffffffffffffffffffffff166115d482610cb2565b73ffffffffffffffffffffffffffffffffffffffff161461162a576040517f08c379a00000000000000000000000000000000000000000000000000000000081526004016116219061304c565b60405180910390fd5b600073ffffffffffffffffffffffffffffffffffffffff168273ffffffffffffffffffffffffffffffffffffffff1603611699576040517f08c379a0000000000000000000000000000000000000000000000000000000008152600401611690906130de565b60405180910390fd5b6116a68383836001611be1565b8273ffffffffffffffffffffffffffffffffffffffff166116c682610cb2565b73ffffffffffffffffffffffffffffffffffffffff161461171c576040517f08c379a00000000000000000000000000000000000000000000000000000000081526004016117139061304c565b60405180910390fd5b6005600082815260200190815260200160002060006101000a81549073ffffffffffffffffffffffffffffffffffffffff02191690556001600460008573ffffffffffffffffffffffffffffffffffffffff1673ffffffffffffffffffffffffffffffffffffffff168152602001908152602001600020600082825403925050819055506001600460008473ffffffffffffffffffffffffffffffffffffffff1673ffffffffffffffffffffffffffffffffffffffff16815260200190815260200160002060008282540192505081905550816003600083815260200190815260200160002060006101000a81548173ffffffffffffffffffffffffffffffffffffffff021916908373ffffffffffffffffffffffffffffffffffffffff160217905550808273ffffffffffffffffffffffffffffffffffffffff168473ffffffffffffffffffffffffffffffffffffffff167fddf252ad1be2c89b69c2b068fc378daa952ba7f163c4a11628f55a4df523b3ef60405160405180910390a46118a88383836001611d07565b505050565b6002600054036118f2576040517f08c379a00000000000000000000000000000000000000000000000000000000081526004016118e99061314a565b60405180910390fd5b6002600081905550565b6001816000016000828254019250508190555050565b6001600081905550565b60006003600083815260200190815260200160002060009054906101000a900473ffffffffffffffffffffffffffffffffffffffff169050919050565b8173ffffffffffffffffffffffffffffffffffffffff168373ffffffffffffffffffffffffffffffffffffffff16036119c7576040517f08c379a00000000000000000000000000000000000000000000000000000000081526004016119be906131b6565b60405180910390fd5b80600660008573ffffffffffffffffffffffffffffffffffffffff1673ffffffffffffffffffffffffffffffffffffffff16815260200190815260200160002060008473ffffffffffffffffffffffffffffffffffffffff1673ffffffffffffffffffffffffffffffffffffffff16815260200190815260200160002060006101000a81548160ff0219169083151502179055508173ffffffffffffffffffffffffffffffffffffffff168373ffffffffffffffffffffffffffffffffffffffff167f17307eab39ab6107e8899845ad3d59bd9653f200f220920489ca2b5937696c3183604051611ab8919061220d565b60405180910390a3505050565b611ad08484846115b4565b611adc84848484611d0d565b611b1b576040517f08c379a0000000000000000000000000000000000000000000000000000000008152600401611b1290613248565b60405180910390fd5b50505050565b606060405180602001604052806000815250905090565b6060611b4382611405565b6000611b4d611b21565b90506000815111611b6d5760405180602001604052806000815250611b98565b80611b7784611e94565b604051602001611b88929190612fb6565b6040516020818303038152906040525b915050919050565b60008073ffffffffffffffffffffffffffffffffffffffff16611bc28361191c565b73ffffffffffffffffffffffffffffffffffffffff1614159050919050565b6001811115611d0157600073ffffffffffffffffffffffffffffffffffffffff168473ffffffffffffffffffffffffffffffffffffffff1614611c755780600460008673ffffffffffffffffffffffffffffffffffffffff1673ffffffffffffffffffffffffffffffffffffffff1681526020019081526020016000206000828254611c6d9190612ac6565b925050819055505b600073ffffffffffffffffffffffffffffffffffffffff168373ffffffffffffffffffffffffffffffffffffffff1614611d005780600460008573ffffffffffffffffffffffffffffffffffffffff1673ffffffffffffffffffffffffffffffffffffffff1681526020019081526020016000206000828254611cf89190612afa565b925050819055505b5b50505050565b50505050565b6000611d2e8473ffffffffffffffffffffffffffffffffffffffff16611f62565b15611e87578373ffffffffffffffffffffffffffffffffffffffff1663150b7a02611d57611450565b8786866040518563ffffffff1660e01b8152600401611d7994939291906132bd565b6020604051808303816000875af1925050508015611db557506040513d601f19601f82011682018060405250810190611db2919061331e565b60015b611e37573d8060008114611de5576040519150601f19603f3d011682016040523d82523d6000602084013e611dea565b606091505b506000815103611e2f576040517f08c379a0000000000000000000000000000000000000000000000000000000008152600401611e2690613248565b60405180910390fd5b805181602001fd5b63150b7a0260e01b7bffffffffffffffffffffffffffffffffffffffffffffffffffffffff1916817bffffffffffffffffffffffffffffffffffffffffffffffffffffffff191614915050611e8c565b600190505b949350505050565b606060006001611ea384611f85565b01905060008167ffffffffffffffff811115611ec257611ec1612725565b5b6040519080825280601f01601f191660200182016040528015611ef45781602001600182028036833780820191505090505b509050600082602001820190505b600115611f57578080600190039150507f3031323334353637383961626364656600000000000000000000000000000000600a86061a8153600a8581611f4b57611f4a61334b565b5b04945060008503611f02575b819350505050919050565b6000808273ffffffffffffffffffffffffffffffffffffffff163b119050919050565b600080600090507a184f03e93ff9f4daa797ed6e38ed64bf6a1f0100000000000000008310611fe3577a184f03e93ff9f4daa797ed6e38ed64bf6a1f0100000000000000008381611fd957611fd861334b565b5b0492506040810190505b6d04ee2d6d415b85acef81000000008310612020576d04ee2d6d415b85acef810000000083816120165761201561334b565b5b0492506020810190505b662386f26fc10000831061204f57662386f26fc1000083816120455761204461334b565b5b0492506010810190505b6305f5e1008310612078576305f5e100838161206e5761206d61334b565b5b0492506008810190505b612710831061209d5761271083816120935761209261334b565b5b0492506004810190505b606483106120c057606483816120b6576120b561334b565b5b0492506002810190505b600a83106120cf576001810190505b80915050919050565b6040518060e001604052806000815260200160008152602001600073ffffffffffffffffffffffffffffffffffffffff168152602001600073ffffffffffffffffffffffffffffffffffffffff168152602001600073ffffffffffffffffffffffffffffffffffffffff168152602001600081526020016000151581525090565b6000604051905090565b600080fd5b600080fd5b60007fffffffff0000000000000000000000000000000000000000000000000000000082169050919050565b6121a28161216d565b81146121ad57600080fd5b50565b6000813590506121bf81612199565b92915050565b6000602082840312156121db576121da612163565b5b60006121e9848285016121b0565b91505092915050565b60008115159050919050565b612207816121f2565b82525050565b600060208201905061222260008301846121fe565b92915050565b600081519050919050565b600082825260208201905092915050565b60005b83811015612262578082015181840152602081019050612247565b60008484015250505050565b6000601f19601f8301169050919050565b600061228a82612228565b6122948185612233565b93506122a4818560208601612244565b6122ad8161226e565b840191505092915050565b600060208201905081810360008301526122d2818461227f565b905092915050565b6000819050919050565b6122ed816122da565b81146122f857600080fd5b50565b60008135905061230a816122e4565b92915050565b60006020828403121561232657612325612163565b5b6000612334848285016122fb565b91505092915050565b600073ffffffffffffffffffffffffffffffffffffffff82169050919050565b60006123688261233d565b9050919050565b6123788161235d565b82525050565b6000602082019050612393600083018461236f565b92915050565b6123a28161235d565b81146123ad57600080fd5b50565b6000813590506123bf81612399565b92915050565b600080604083850312156123dc576123db612163565b5b60006123ea858286016123b0565b92505060206123fb858286016122fb565b9150509250929050565b600081519050919050565b600082825260208201905092915050565b6000819050602082019050919050565b61243a816122da565b82525050565b6124498161235d565b82525050565b600061245a8261233d565b9050919050565b61246a8161244f565b82525050565b612479816121f2565b82525050565b60e0820160008201516124956000850182612431565b5060208201516124a86020850182612431565b5060408201516124bb6040850182612440565b5060608201516124ce6060850182612461565b5060808201516124e16080850182612461565b5060a08201516124f460a0850182612431565b5060c082015161250760c0850182612470565b50505050565b6000612519838361247f565b60e08301905092915050565b6000602082019050919050565b600061253d82612405565b6125478185612410565b935061255283612421565b8060005b8381101561258357815161256a888261250d565b975061257583612525565b925050600181019050612556565b5085935050505092915050565b600060208201905081810360008301526125aa8184612532565b905092915050565b6000806000606084860312156125cb576125ca612163565b5b60006125d9868287016123b0565b93505060206125ea868287016123b0565b92505060406125fb868287016122fb565b9150509250925092565b60008060006060848603121561261e5761261d612163565b5b600061262c868287016123b0565b935050602061263d868287016122fb565b925050604061264e868287016122fb565b9150509250925092565b60006020828403121561266e5761266d612163565b5b600061267c848285016123b0565b91505092915050565b61268e816122da565b82525050565b60006020820190506126a96000830184612685565b92915050565b6126b8816121f2565b81146126c357600080fd5b50565b6000813590506126d5816126af565b92915050565b600080604083850312156126f2576126f1612163565b5b6000612700858286016123b0565b9250506020612711858286016126c6565b9150509250929050565b600080fd5b600080fd5b7f4e487b7100000000000000000000000000000000000000000000000000000000600052604160045260246000fd5b61275d8261226e565b810181811067ffffffffffffffff8211171561277c5761277b612725565b5b80604052505050565b600061278f612159565b905061279b8282612754565b919050565b600067ffffffffffffffff8211156127bb576127ba612725565b5b6127c48261226e565b9050602081019050919050565b82818337600083830152505050565b60006127f36127ee846127a0565b612785565b90508281526020810184848401111561280f5761280e612720565b5b61281a8482856127d1565b509392505050565b600082601f8301126128375761283661271b565b5b81356128478482602086016127e0565b91505092915050565b6000806000806080858703121561286a57612869612163565b5b6000612878878288016123b0565b9450506020612889878288016123b0565b935050604061289a878288016122fb565b925050606085013567ffffffffffffffff8111156128bb576128ba612168565b5b6128c787828801612822565b91505092959194509250565b600080604083850312156128ea576128e9612163565b5b60006128f8858286016123b0565b9250506020612909858286016123b0565b9150509250929050565b7f4e487b7100000000000000000000000000000000000000000000000000000000600052602260045260246000fd5b6000600282049050600182168061295a57607f821691505b60208210810361296d5761296c612913565b5b50919050565b7f4552433732313a20617070726f76616c20746f2063757272656e74206f776e6560008201527f7200000000000000000000000000000000000000000000000000000000000000602082015250565b60006129cf602183612233565b91506129da82612973565b604082019050919050565b600060208201905081810360008301526129fe816129c2565b9050919050565b7f4552433732313a20617070726f76652063616c6c6572206973206e6f7420746f60008201527f6b656e206f776e6572206f7220617070726f76656420666f7220616c6c000000602082015250565b6000612a61603d83612233565b9150612a6c82612a05565b604082019050919050565b60006020820190508181036000830152612a9081612a54565b9050919050565b7f4e487b7100000000000000000000000000000000000000000000000000000000600052601160045260246000fd5b6000612ad1826122da565b9150612adc836122da565b9250828203905081811115612af457612af3612a97565b5b92915050565b6000612b05826122da565b9150612b10836122da565b9250828201905080821115612b2857612b27612a97565b5b92915050565b7f4e487b7100000000000000000000000000000000000000000000000000000000600052603260045260246000fd5b6000612b68826122da565b91507fffffffffffffffffffffffffffffffffffffffffffffffffffffffffffffffff8203612b9a57612b99612a97565b5b600182019050919050565b7f4552433732313a2063616c6c6572206973206e6f7420746f6b656e206f776e6560008201527f72206f7220617070726f76656400000000000000000000000000000000000000602082015250565b6000612c01602d83612233565b9150612c0c82612ba5565b604082019050919050565b60006020820190508181036000830152612c3081612bf4565b9050919050565b7f5072696365206d7573742062652067726561746572207468616e203000000000600082015250565b6000612c6d601c83612233565b9150612c7882612c37565b602082019050919050565b60006020820190508181036000830152612c9c81612c60565b9050919050565b6000608082019050612cb8600083018761236f565b612cc5602083018661236f565b612cd26040830185612685565b612cdf60608301846121fe565b95945050505050565b7f4552433732313a20696e76616c696420746f6b656e2049440000000000000000600082015250565b6000612d1e601883612233565b9150612d2982612ce8565b602082019050919050565b60006020820190508181036000830152612d4d81612d11565b9050919050565b7f4552433732313a2061646472657373207a65726f206973206e6f74206120766160008201527f6c6964206f776e65720000000000000000000000000000000000000000000000602082015250565b6000612db0602983612233565b9150612dbb82612d54565b604082019050919050565b60006020820190508181036000830152612ddf81612da3565b9050919050565b7f506c65617365207375626d6974207468652061736b696e67207072696365206960008201527f6e206f7264657220746f20636f6d706c65746520746865207075726368617365602082015250565b6000612e42604083612233565b9150612e4d82612de6565b604082019050919050565b60006020820190508181036000830152612e7181612e35565b9050919050565b7f546869732053616c652068617320616c726564792066696e6973686564000000600082015250565b6000612eae601d83612233565b9150612eb982612e78565b602082019050919050565b60006020820190508181036000830152612edd81612ea1565b9050919050565b6000819050919050565b6000612f09612f04612eff8461233d565b612ee4565b61233d565b9050919050565b6000612f1b82612eee565b9050919050565b6000612f2d82612f10565b9050919050565b612f3d81612f22565b82525050565b6000606082019050612f586000830186612f34565b612f65602083018561236f565b612f726040830184612685565b949350505050565b600081905092915050565b6000612f9082612228565b612f9a8185612f7a565b9350612faa818560208601612244565b80840191505092915050565b6000612fc28285612f85565b9150612fce8284612f85565b91508190509392505050565b7f4552433732313a207472616e736665722066726f6d20696e636f72726563742060008201527f6f776e6572000000000000000000000000000000000000000000000000000000602082015250565b6000613036602583612233565b915061304182612fda565b604082019050919050565b6000602082019050818103600083015261306581613029565b9050919050565b7f4552433732313a207472616e7366657220746f20746865207a65726f2061646460008201527f7265737300000000000000000000000000000000000000000000000000000000602082015250565b60006130c8602483612233565b91506130d38261306c565b604082019050919050565b600060208201905081810360008301526130f7816130bb565b9050919050565b7f5265656e7472616e637947756172643a207265656e7472616e742063616c6c00600082015250565b6000613134601f83612233565b915061313f826130fe565b602082019050919050565b6000602082019050818103600083015261316381613127565b9050919050565b7f4552433732313a20617070726f766520746f2063616c6c657200000000000000600082015250565b60006131a0601983612233565b91506131ab8261316a565b602082019050919050565b600060208201905081810360008301526131cf81613193565b9050919050565b7f4552433732313a207472616e7366657220746f206e6f6e20455243373231526560008201527f63656976657220696d706c656d656e7465720000000000000000000000000000602082015250565b6000613232603283612233565b915061323d826131d6565b604082019050919050565b6000602082019050818103600083015261326181613225565b9050919050565b600081519050919050565b600082825260208201905092915050565b600061328f82613268565b6132998185613273565b93506132a9818560208601612244565b6132b28161226e565b840191505092915050565b60006080820190506132d2600083018761236f565b6132df602083018661236f565b6132ec6040830185612685565b81810360608301526132fe8184613284565b905095945050505050565b60008151905061331881612199565b92915050565b60006020828403121561333457613333612163565b5b600061334284828501613309565b91505092915050565b7f4e487b7100000000000000000000000000000000000000000000000000000000600052601260045260246000fdfea26469706673582212201508baf3425e71ef56b614daeba10bc1ff6a18fe9d737f1ac3389e1577972cf464736f6c63430008110033",
  "immutableReferences": {},
  "source": "// SPDX-License-Identifier: MIT\r\npragma solidity ^0.8.4;\r\n\r\nimport \"@openzeppelin/contracts/utils/Counters.sol\";\r\nimport \"@openzeppelin/contracts/token/ERC721/IERC721.sol\";\r\nimport \"@openzeppelin/contracts/token/ERC721/extensions/ERC721URIStorage.sol\";\r\nimport \"@openzeppelin/contracts/security/ReentrancyGuard.sol\";\r\n\r\ncontract NFTMarketplace is ReentrancyGuard, ERC721URIStorage {\r\n    using Counters for Counters.Counter;\r\n    Counters.Counter private _itemIds;\r\n    Counters.Counter private _itemsSold;\r\n\r\n    address public owner;\r\n\r\n    mapping(uint256 => MarketItem) private idToMarketItem;\r\n\r\n    constructor() ERC721(\"TestDApp Tokens\", \"TDT\") {\r\n        owner = payable(msg.sender);\r\n    }\r\n\r\n    struct MarketItem {\r\n        uint itemId;\r\n        uint256 tokenId;\r\n        address nftContract;\r\n        address payable seller;\r\n        address payable owner;\r\n        uint256 price;\r\n        bool sold;\r\n    }\r\n\r\n    event MarketItemCreated (\r\n        uint indexed itemId,\r\n        uint256 indexed tokenId,\r\n        address indexed nftContract,\r\n        address seller,\r\n        address owner,\r\n        uint256 price,\r\n        bool sold\r\n    );\r\n\r\n    event MarketItemSold (\r\n        uint indexed itemId,\r\n        address owner\r\n    );\r\n\r\n    /* Creates the sale of a marketplace item */\r\n    /* Transfers ownership of the item, as well as funds between parties */\r\n    function createMarketItem (address nftContract, uint256 tokenId, uint256 price) public payable nonReentrant {\r\n        require(price > 0, \"Price must be greater than 0\");\r\n\r\n        _itemIds.increment();\r\n        uint256 itemId = _itemIds.current();\r\n\r\n        idToMarketItem[itemId] = MarketItem(\r\n            itemId,\r\n            tokenId,\r\n            nftContract,\r\n            payable(msg.sender),\r\n            payable(address(0)),\r\n            price,\r\n            false\r\n        );\r\n\r\n        setApprovalForAll(address(this), true);\r\n        // IERC721(nftContract).transferFrom(msg.sender, address(this), tokenId);\r\n\r\n        emit MarketItemCreated(itemId, tokenId, nftContract, msg.sender, address(0), price, false);\r\n    }\r\n\r\n    function createMarketSale(address nftContract, uint256 itemId) public payable {\r\n        uint price = idToMarketItem[itemId].price;\r\n        uint tokenId = idToMarketItem[itemId].tokenId;\r\n        bool sold = idToMarketItem[itemId].sold;\r\n\r\n        require(msg.value == price, \"Please submit the asking price in order to complete the purchase\");\r\n        require(sold != true, \"This Sale has alredy finished\");\r\n\r\n        emit MarketItemSold(itemId, msg.sender);\r\n\r\n        idToMarketItem[itemId].seller.transfer(msg.value);\r\n        IERC721(nftContract).transferFrom(idToMarketItem[itemId].seller, msg.sender, tokenId);\r\n        idToMarketItem[itemId].owner = payable(msg.sender);\r\n        _itemsSold.increment();\r\n        idToMarketItem[itemId].sold = true;\r\n    }\r\n\r\n    /* Returns all unsold market items */\r\n    function fetchMarketItems() public view returns (MarketItem[] memory) {\r\n        uint itemCount = _itemIds.current();\r\n        uint unsoldItemCount = _itemIds.current() - _itemsSold.current();\r\n        uint currentIndex = 0;\r\n\r\n        MarketItem[] memory items = new MarketItem[](unsoldItemCount);\r\n        for (uint i = 0; i < itemCount; i++) {\r\n            if(idToMarketItem[i + 1].owner == address(0)) {\r\n                uint currentId = i + 1;\r\n                MarketItem storage currentItem = idToMarketItem[currentId];\r\n                items[currentIndex] = currentItem;\r\n                currentIndex += 1;\r\n            }\r\n        }\r\n        return items;\r\n    }\r\n}",
  "sourcePath": "C:\\Users\\cq771\\BlockchainProjects\\Project2\\src\\contracts\\NFTMarketplace.sol",
  "compiler": {
    "name": "solc",
    "version": "0.8.17+commit.8df45f5f.Emscripten.clang"
  },
  "schemaVersion": "3.4.10",
  "updatedAt": "2023-01-06T03:42:14.596Z",
  "networkType": "ethereum",
  "devdoc": {
    "kind": "dev",
    "methods": {
      "approve(address,uint256)": {
        "details": "See {IERC721-approve}."
      },
      "balanceOf(address)": {
        "details": "See {IERC721-balanceOf}."
      },
      "getApproved(uint256)": {
        "details": "See {IERC721-getApproved}."
      },
      "isApprovedForAll(address,address)": {
        "details": "See {IERC721-isApprovedForAll}."
      },
      "name()": {
        "details": "See {IERC721Metadata-name}."
      },
      "ownerOf(uint256)": {
        "details": "See {IERC721-ownerOf}."
      },
      "safeTransferFrom(address,address,uint256)": {
        "details": "See {IERC721-safeTransferFrom}."
      },
      "safeTransferFrom(address,address,uint256,bytes)": {
        "details": "See {IERC721-safeTransferFrom}."
      },
      "setApprovalForAll(address,bool)": {
        "details": "See {IERC721-setApprovalForAll}."
      },
      "supportsInterface(bytes4)": {
        "details": "See {IERC165-supportsInterface}."
      },
      "symbol()": {
        "details": "See {IERC721Metadata-symbol}."
      },
      "tokenURI(uint256)": {
        "details": "See {IERC721Metadata-tokenURI}."
      },
      "transferFrom(address,address,uint256)": {
        "details": "See {IERC721-transferFrom}."
      }
    },
    "version": 1
  },
  "userdoc": {
    "kind": "user",
    "methods": {},
    "version": 1
  }
}